{"abi":[{"type":"constructor","inputs":[{"name":"_token0","type":"address","internalType":"address"},{"name":"_token1","type":"address","internalType":"address"}],"stateMutability":"nonpayable"},{"type":"function","name":"addLiquidity","inputs":[{"name":"amount0","type":"uint256","internalType":"uint256"},{"name":"amount1","type":"uint256","internalType":"uint256"}],"outputs":[{"name":"liquidity","type":"uint256","internalType":"uint256"}],"stateMutability":"nonpayable"},{"type":"function","name":"allowance","inputs":[{"name":"owner","type":"address","internalType":"address"},{"name":"spender","type":"address","internalType":"address"}],"outputs":[{"name":"","type":"uint256","internalType":"uint256"}],"stateMutability":"view"},{"type":"function","name":"approve","inputs":[{"name":"spender","type":"address","internalType":"address"},{"name":"value","type":"uint256","internalType":"uint256"}],"outputs":[{"name":"","type":"bool","internalType":"bool"}],"stateMutability":"nonpayable"},{"type":"function","name":"balanceOf","inputs":[{"name":"account","type":"address","internalType":"address"}],"outputs":[{"name":"","type":"uint256","internalType":"uint256"}],"stateMutability":"view"},{"type":"function","name":"decimals","inputs":[],"outputs":[{"name":"","type":"uint8","internalType":"uint8"}],"stateMutability":"view"},{"type":"function","name":"name","inputs":[],"outputs":[{"name":"","type":"string","internalType":"string"}],"stateMutability":"view"},{"type":"function","name":"reserve0","inputs":[],"outputs":[{"name":"","type":"uint112","internalType":"uint112"}],"stateMutability":"view"},{"type":"function","name":"reserve1","inputs":[],"outputs":[{"name":"","type":"uint112","internalType":"uint112"}],"stateMutability":"view"},{"type":"function","name":"swap","inputs":[{"name":"amount0Out","type":"uint256","internalType":"uint256"},{"name":"amount1Out","type":"uint256","internalType":"uint256"},{"name":"to","type":"address","internalType":"address"}],"outputs":[],"stateMutability":"nonpayable"},{"type":"function","name":"symbol","inputs":[],"outputs":[{"name":"","type":"string","internalType":"string"}],"stateMutability":"view"},{"type":"function","name":"token0","inputs":[],"outputs":[{"name":"","type":"address","internalType":"address"}],"stateMutability":"view"},{"type":"function","name":"token1","inputs":[],"outputs":[{"name":"","type":"address","internalType":"address"}],"stateMutability":"view"},{"type":"function","name":"totalSupply","inputs":[],"outputs":[{"name":"","type":"uint256","internalType":"uint256"}],"stateMutability":"view"},{"type":"function","name":"transfer","inputs":[{"name":"to","type":"address","internalType":"address"},{"name":"value","type":"uint256","internalType":"uint256"}],"outputs":[{"name":"","type":"bool","internalType":"bool"}],"stateMutability":"nonpayable"},{"type":"function","name":"transferFrom","inputs":[{"name":"from","type":"address","internalType":"address"},{"name":"to","type":"address","internalType":"address"},{"name":"value","type":"uint256","internalType":"uint256"}],"outputs":[{"name":"","type":"bool","internalType":"bool"}],"stateMutability":"nonpayable"},{"type":"event","name":"Approval","inputs":[{"name":"owner","type":"address","indexed":true,"internalType":"address"},{"name":"spender","type":"address","indexed":true,"internalType":"address"},{"name":"value","type":"uint256","indexed":false,"internalType":"uint256"}],"anonymous":false},{"type":"event","name":"Transfer","inputs":[{"name":"from","type":"address","indexed":true,"internalType":"address"},{"name":"to","type":"address","indexed":true,"internalType":"address"},{"name":"value","type":"uint256","indexed":false,"internalType":"uint256"}],"anonymous":false},{"type":"error","name":"ERC20InsufficientAllowance","inputs":[{"name":"spender","type":"address","internalType":"address"},{"name":"allowance","type":"uint256","internalType":"uint256"},{"name":"needed","type":"uint256","internalType":"uint256"}]},{"type":"error","name":"ERC20InsufficientBalance","inputs":[{"name":"sender","type":"address","internalType":"address"},{"name":"balance","type":"uint256","internalType":"uint256"},{"name":"needed","type":"uint256","internalType":"uint256"}]},{"type":"error","name":"ERC20InvalidApprover","inputs":[{"name":"approver","type":"address","internalType":"address"}]},{"type":"error","name":"ERC20InvalidReceiver","inputs":[{"name":"receiver","type":"address","internalType":"address"}]},{"type":"error","name":"ERC20InvalidSender","inputs":[{"name":"sender","type":"address","internalType":"address"}]},{"type":"error","name":"ERC20InvalidSpender","inputs":[{"name":"spender","type":"address","internalType":"address"}]}],"bytecode":{"object":"0x608060405234801561000f575f5ffd5b50604051612132380380612132833981810160405281019061003191906101a4565b6040518060400160405280600881526020017f4c5020546f6b656e0000000000000000000000000000000000000000000000008152506040518060400160405280600381526020017f4c5054000000000000000000000000000000000000000000000000000000000081525081600390816100ac9190610430565b5080600490816100bc9190610430565b5050508160055f6101000a81548173ffffffffffffffffffffffffffffffffffffffff021916908373ffffffffffffffffffffffffffffffffffffffff1602179055508060065f6101000a81548173ffffffffffffffffffffffffffffffffffffffff021916908373ffffffffffffffffffffffffffffffffffffffff16021790555050506104ff565b5f5ffd5b5f73ffffffffffffffffffffffffffffffffffffffff82169050919050565b5f6101738261014a565b9050919050565b61018381610169565b811461018d575f5ffd5b50565b5f8151905061019e8161017a565b92915050565b5f5f604083850312156101ba576101b9610146565b5b5f6101c785828601610190565b92505060206101d885828601610190565b9150509250929050565b5f81519050919050565b7f4e487b71000000000000000000000000000000000000000000000000000000005f52604160045260245ffd5b7f4e487b71000000000000000000000000000000000000000000000000000000005f52602260045260245ffd5b5f600282049050600182168061025d57607f821691505b6020821081036102705761026f610219565b5b50919050565b5f819050815f5260205f209050919050565b5f6020601f8301049050919050565b5f82821b905092915050565b5f600883026102d27fffffffffffffffffffffffffffffffffffffffffffffffffffffffffffffffff82610297565b6102dc8683610297565b95508019841693508086168417925050509392505050565b5f819050919050565b5f819050919050565b5f61032061031b610316846102f4565b6102fd565b6102f4565b9050919050565b5f819050919050565b61033983610306565b61034d61034582610327565b8484546102a3565b825550505050565b5f5f905090565b610364610355565b61036f818484610330565b505050565b5f5b828110156103955761038a5f82840161035c565b600181019050610376565b505050565b601f8211156103e857828211156103e7576103b481610276565b6103bd83610288565b6103c685610288565b60208610156103d3575f90505b8083016103e282840382610374565b505050505b5b505050565b5f82821c905092915050565b5f6104085f19846008026103ed565b1980831691505092915050565b5f61042083836103f9565b9150826002028217905092915050565b610439826101e2565b67ffffffffffffffff811115610452576104516101ec565b5b61045c8254610246565b61046782828561039a565b5f60209050601f831160018114610498575f8415610486578287015190505b6104908582610415565b8655506104f7565b601f1984166104a686610276565b5f5b828110156104cd578489015182556001820191506020850194506020810190506104a8565b868310156104ea57848901516104e6601f8916826103f9565b8355505b6001600288020188555050505b505050505050565b611c268061050c5f395ff3fe608060405234801561000f575f5ffd5b50600436106100f3575f3560e01c80635a76f25e116100955780639cd441da116100645780639cd441da14610275578063a9059cbb146102a5578063d21220a7146102d5578063dd62ed3e146102f3576100f3565b80635a76f25e146101ed5780636d9a640a1461020b57806370a082311461022757806395d89b4114610257576100f3565b806318160ddd116100d157806318160ddd1461016357806323b872dd14610181578063313ce567146101b1578063443cb4bc146101cf576100f3565b806306fdde03146100f7578063095ea7b3146101155780630dfe168114610145575b5f5ffd5b6100ff610323565b60405161010c919061150a565b60405180910390f35b61012f600480360381019061012a91906115bb565b6103b3565b60405161013c9190611613565b60405180910390f35b61014d6103d5565b60405161015a919061163b565b60405180910390f35b61016b6103fa565b6040516101789190611663565b60405180910390f35b61019b6004803603810190610196919061167c565b610403565b6040516101a89190611613565b60405180910390f35b6101b9610431565b6040516101c691906116e7565b60405180910390f35b6101d7610439565b6040516101e49190611728565b60405180910390f35b6101f5610458565b6040516102029190611728565b60405180910390f35b61022560048036038101906102209190611741565b610478565b005b610241600480360381019061023c9190611791565b6108ad565b60405161024e9190611663565b60405180910390f35b61025f6108f2565b60405161026c919061150a565b60405180910390f35b61028f600480360381019061028a91906117bc565b610982565b60405161029c9190611663565b60405180910390f35b6102bf60048036038101906102ba91906115bb565b610cd2565b6040516102cc9190611613565b60405180910390f35b6102dd610cf4565b6040516102ea919061163b565b60405180910390f35b61030d600480360381019061030891906117fa565b610d19565b60405161031a9190611663565b60405180910390f35b60606003805461033290611865565b80601f016020809104026020016040519081016040528092919081815260200182805461035e90611865565b80156103a95780601f10610380576101008083540402835291602001916103a9565b820191905f5260205f20905b81548152906001019060200180831161038c57829003601f168201915b5050505050905090565b5f5f6103bd610d9b565b90506103ca818585610da2565b600191505092915050565b60055f9054906101000a900473ffffffffffffffffffffffffffffffffffffffff1681565b5f600254905090565b5f5f61040d610d9b565b905061041a858285610db4565b610425858585610e47565b60019150509392505050565b5f6012905090565b60075f9054906101000a90046dffffffffffffffffffffffffffff1681565b6007600e9054906101000a90046dffffffffffffffffffffffffffff1681565b5f83118061048557505f82115b6104c4576040517f08c379a00000000000000000000000000000000000000000000000000000000081526004016104bb906118df565b60405180910390fd5b60075f9054906101000a90046dffffffffffffffffffffffffffff166dffffffffffffffffffffffffffff168310801561052957506007600e9054906101000a90046dffffffffffffffffffffffffffff166dffffffffffffffffffffffffffff1682105b610568576040517f08c379a000000000000000000000000000000000000000000000000000000000815260040161055f90611947565b60405180910390fd5b5f83111561060e5760055f9054906101000a900473ffffffffffffffffffffffffffffffffffffffff1673ffffffffffffffffffffffffffffffffffffffff1663a9059cbb82856040518363ffffffff1660e01b81526004016105cc929190611965565b6020604051808303815f875af11580156105e8573d5f5f3e3d5ffd5b505050506040513d601f19601f8201168201806040525081019061060c91906119b6565b505b5f8211156106b45760065f9054906101000a900473ffffffffffffffffffffffffffffffffffffffff1673ffffffffffffffffffffffffffffffffffffffff1663a9059cbb82846040518363ffffffff1660e01b8152600401610672929190611965565b6020604051808303815f875af115801561068e573d5f5f3e3d5ffd5b505050506040513d601f19601f820116820180604052508101906106b291906119b6565b505b5f60055f9054906101000a900473ffffffffffffffffffffffffffffffffffffffff1673ffffffffffffffffffffffffffffffffffffffff166370a08231306040518263ffffffff1660e01b815260040161070f919061163b565b602060405180830381865afa15801561072a573d5f5f3e3d5ffd5b505050506040513d601f19601f8201168201806040525081019061074e91906119f5565b90505f60065f9054906101000a900473ffffffffffffffffffffffffffffffffffffffff1673ffffffffffffffffffffffffffffffffffffffff166370a08231306040518263ffffffff1660e01b81526004016107ab919061163b565b602060405180830381865afa1580156107c6573d5f5f3e3d5ffd5b505050506040513d601f19601f820116820180604052508101906107ea91906119f5565b90506007600e9054906101000a90046dffffffffffffffffffffffffffff166dffffffffffffffffffffffffffff1660075f9054906101000a90046dffffffffffffffffffffffffffff166dffffffffffffffffffffffffffff1661084f9190611a4d565b818361085b9190611a4d565b101561089c576040517f08c379a000000000000000000000000000000000000000000000000000000000815260040161089390611ad8565b60405180910390fd5b6108a68282610f37565b5050505050565b5f5f5f8373ffffffffffffffffffffffffffffffffffffffff1673ffffffffffffffffffffffffffffffffffffffff1681526020019081526020015f20549050919050565b60606004805461090190611865565b80601f016020809104026020016040519081016040528092919081815260200182805461092d90611865565b80156109785780601f1061094f57610100808354040283529160200191610978565b820191905f5260205f20905b81548152906001019060200180831161095b57829003601f168201915b5050505050905090565b5f60055f9054906101000a900473ffffffffffffffffffffffffffffffffffffffff1673ffffffffffffffffffffffffffffffffffffffff166323b872dd3330866040518463ffffffff1660e01b81526004016109e193929190611af6565b6020604051808303815f875af11580156109fd573d5f5f3e3d5ffd5b505050506040513d601f19601f82011682018060405250810190610a2191906119b6565b5060065f9054906101000a900473ffffffffffffffffffffffffffffffffffffffff1673ffffffffffffffffffffffffffffffffffffffff166323b872dd3330856040518463ffffffff1660e01b8152600401610a8093929190611af6565b6020604051808303815f875af1158015610a9c573d5f5f3e3d5ffd5b505050506040513d601f19601f82011682018060405250810190610ac091906119b6565b505f610aca6103fa565b03610aea57610ae38284610ade9190611a4d565b610fa4565b9050610b88565b610b8560075f9054906101000a90046dffffffffffffffffffffffffffff166dffffffffffffffffffffffffffff16610b216103fa565b85610b2c9190611a4d565b610b369190611b58565b6007600e9054906101000a90046dffffffffffffffffffffffffffff166dffffffffffffffffffffffffffff16610b6b6103fa565b85610b769190611a4d565b610b809190611b58565b61101b565b90505b610b923382611033565b610ccc60055f9054906101000a900473ffffffffffffffffffffffffffffffffffffffff1673ffffffffffffffffffffffffffffffffffffffff166370a08231306040518263ffffffff1660e01b8152600401610bef919061163b565b602060405180830381865afa158015610c0a573d5f5f3e3d5ffd5b505050506040513d601f19601f82011682018060405250810190610c2e91906119f5565b60065f9054906101000a900473ffffffffffffffffffffffffffffffffffffffff1673ffffffffffffffffffffffffffffffffffffffff166370a08231306040518263ffffffff1660e01b8152600401610c88919061163b565b602060405180830381865afa158015610ca3573d5f5f3e3d5ffd5b505050506040513d601f19601f82011682018060405250810190610cc791906119f5565b610f37565b92915050565b5f5f610cdc610d9b565b9050610ce9818585610e47565b600191505092915050565b60065f9054906101000a900473ffffffffffffffffffffffffffffffffffffffff1681565b5f60015f8473ffffffffffffffffffffffffffffffffffffffff1673ffffffffffffffffffffffffffffffffffffffff1681526020019081526020015f205f8373ffffffffffffffffffffffffffffffffffffffff1673ffffffffffffffffffffffffffffffffffffffff1681526020019081526020015f2054905092915050565b5f33905090565b610daf83838360016110b2565b505050565b5f610dbf8484610d19565b90507fffffffffffffffffffffffffffffffffffffffffffffffffffffffffffffffff811015610e415781811015610e32578281836040517ffb8f41b2000000000000000000000000000000000000000000000000000000008152600401610e2993929190611b88565b60405180910390fd5b610e4084848484035f6110b2565b5b50505050565b5f73ffffffffffffffffffffffffffffffffffffffff168373ffffffffffffffffffffffffffffffffffffffff1603610eb7575f6040517f96c6fd1e000000000000000000000000000000000000000000000000000000008152600401610eae919061163b565b60405180910390fd5b5f73ffffffffffffffffffffffffffffffffffffffff168273ffffffffffffffffffffffffffffffffffffffff1603610f27575f6040517fec442f05000000000000000000000000000000000000000000000000000000008152600401610f1e919061163b565b60405180910390fd5b610f32838383611281565b505050565b8160075f6101000a8154816dffffffffffffffffffffffffffff02191690836dffffffffffffffffffffffffffff160217905550806007600e6101000a8154816dffffffffffffffffffffffffffff02191690836dffffffffffffffffffffffffffff1602179055505050565b5f6003821115611009578190505f6001600284610fc19190611b58565b610fcb9190611bbd565b90505b81811015611003578091506002818285610fe89190611b58565b610ff29190611bbd565b610ffc9190611b58565b9050610fce565b50611016565b5f821461101557600190505b5b919050565b5f818310611029578161102b565b825b905092915050565b5f73ffffffffffffffffffffffffffffffffffffffff168273ffffffffffffffffffffffffffffffffffffffff16036110a3575f6040517fec442f0500000000000000000000000000000000000000000000000000000000815260040161109a919061163b565b60405180910390fd5b6110ae5f8383611281565b5050565b5f73ffffffffffffffffffffffffffffffffffffffff168473ffffffffffffffffffffffffffffffffffffffff1603611122575f6040517fe602df05000000000000000000000000000000000000000000000000000000008152600401611119919061163b565b60405180910390fd5b5f73ffffffffffffffffffffffffffffffffffffffff168373ffffffffffffffffffffffffffffffffffffffff1603611192575f6040517f94280d62000000000000000000000000000000000000000000000000000000008152600401611189919061163b565b60405180910390fd5b8160015f8673ffffffffffffffffffffffffffffffffffffffff1673ffffffffffffffffffffffffffffffffffffffff1681526020019081526020015f205f8573ffffffffffffffffffffffffffffffffffffffff1673ffffffffffffffffffffffffffffffffffffffff1681526020019081526020015f2081905550801561127b578273ffffffffffffffffffffffffffffffffffffffff168473ffffffffffffffffffffffffffffffffffffffff167f8c5be1e5ebec7d5bd14f71427d1e84f3dd0314c0f7b2291e5b200ac8c7c3b925846040516112729190611663565b60405180910390a35b50505050565b5f73ffffffffffffffffffffffffffffffffffffffff168373ffffffffffffffffffffffffffffffffffffffff16036112d1578060025f8282546112c59190611bbd565b9250508190555061139f565b5f5f5f8573ffffffffffffffffffffffffffffffffffffffff1673ffffffffffffffffffffffffffffffffffffffff1681526020019081526020015f205490508181101561135a578381836040517fe450d38c00000000000000000000000000000000000000000000000000000000815260040161135193929190611b88565b60405180910390fd5b8181035f5f8673ffffffffffffffffffffffffffffffffffffffff1673ffffffffffffffffffffffffffffffffffffffff1681526020019081526020015f2081905550505b5f73ffffffffffffffffffffffffffffffffffffffff168273ffffffffffffffffffffffffffffffffffffffff16036113e6578060025f8282540392505081905550611430565b805f5f8473ffffffffffffffffffffffffffffffffffffffff1673ffffffffffffffffffffffffffffffffffffffff1681526020019081526020015f205f82825401925050819055505b8173ffffffffffffffffffffffffffffffffffffffff168373ffffffffffffffffffffffffffffffffffffffff167fddf252ad1be2c89b69c2b068fc378daa952ba7f163c4a11628f55a4df523b3ef8360405161148d9190611663565b60405180910390a3505050565b5f81519050919050565b5f82825260208201905092915050565b8281835e5f83830152505050565b5f601f19601f8301169050919050565b5f6114dc8261149a565b6114e681856114a4565b93506114f68185602086016114b4565b6114ff816114c2565b840191505092915050565b5f6020820190508181035f83015261152281846114d2565b905092915050565b5f5ffd5b5f73ffffffffffffffffffffffffffffffffffffffff82169050919050565b5f6115578261152e565b9050919050565b6115678161154d565b8114611571575f5ffd5b50565b5f813590506115828161155e565b92915050565b5f819050919050565b61159a81611588565b81146115a4575f5ffd5b50565b5f813590506115b581611591565b92915050565b5f5f604083850312156115d1576115d061152a565b5b5f6115de85828601611574565b92505060206115ef858286016115a7565b9150509250929050565b5f8115159050919050565b61160d816115f9565b82525050565b5f6020820190506116265f830184611604565b92915050565b6116358161154d565b82525050565b5f60208201905061164e5f83018461162c565b92915050565b61165d81611588565b82525050565b5f6020820190506116765f830184611654565b92915050565b5f5f5f606084860312156116935761169261152a565b5b5f6116a086828701611574565b93505060206116b186828701611574565b92505060406116c2868287016115a7565b9150509250925092565b5f60ff82169050919050565b6116e1816116cc565b82525050565b5f6020820190506116fa5f8301846116d8565b92915050565b5f6dffffffffffffffffffffffffffff82169050919050565b61172281611700565b82525050565b5f60208201905061173b5f830184611719565b92915050565b5f5f5f606084860312156117585761175761152a565b5b5f611765868287016115a7565b9350506020611776868287016115a7565b925050604061178786828701611574565b9150509250925092565b5f602082840312156117a6576117a561152a565b5b5f6117b384828501611574565b91505092915050565b5f5f604083850312156117d2576117d161152a565b5b5f6117df858286016115a7565b92505060206117f0858286016115a7565b9150509250929050565b5f5f604083850312156118105761180f61152a565b5b5f61181d85828601611574565b925050602061182e85828601611574565b9150509250929050565b7f4e487b71000000000000000000000000000000000000000000000000000000005f52602260045260245ffd5b5f600282049050600182168061187c57607f821691505b60208210810361188f5761188e611838565b5b50919050565b7f496e73756666696369656e74206f7574707574000000000000000000000000005f82015250565b5f6118c96013836114a4565b91506118d482611895565b602082019050919050565b5f6020820190508181035f8301526118f6816118bd565b9050919050565b7f496e73756666696369656e74206c6971756964697479000000000000000000005f82015250565b5f6119316016836114a4565b915061193c826118fd565b602082019050919050565b5f6020820190508181035f83015261195e81611925565b9050919050565b5f6040820190506119785f83018561162c565b6119856020830184611654565b9392505050565b611995816115f9565b811461199f575f5ffd5b50565b5f815190506119b08161198c565b92915050565b5f602082840312156119cb576119ca61152a565b5b5f6119d8848285016119a2565b91505092915050565b5f815190506119ef81611591565b92915050565b5f60208284031215611a0a57611a0961152a565b5b5f611a17848285016119e1565b91505092915050565b7f4e487b71000000000000000000000000000000000000000000000000000000005f52601160045260245ffd5b5f611a5782611588565b9150611a6283611588565b9250828202611a7081611588565b91508282048414831517611a8757611a86611a20565b5b5092915050565b7f4b2076696f6c61746564000000000000000000000000000000000000000000005f82015250565b5f611ac2600a836114a4565b9150611acd82611a8e565b602082019050919050565b5f6020820190508181035f830152611aef81611ab6565b9050919050565b5f606082019050611b095f83018661162c565b611b16602083018561162c565b611b236040830184611654565b949350505050565b7f4e487b71000000000000000000000000000000000000000000000000000000005f52601260045260245ffd5b5f611b6282611588565b9150611b6d83611588565b925082611b7d57611b7c611b2b565b5b828204905092915050565b5f606082019050611b9b5f83018661162c565b611ba86020830185611654565b611bb56040830184611654565b949350505050565b5f611bc782611588565b9150611bd283611588565b9250828201905080821115611bea57611be9611a20565b5b9291505056fea2646970667358221220ce6f3efd3b17ebfac1edd387320a1fa0493a4e427ac1b8286484198bc5a5b18364736f6c63430008220033","linkReferences":{}},"methodIdentifiers":{"addLiquidity(uint256,uint256)":"9cd441da","allowance(address,address)":"dd62ed3e","approve(address,uint256)":"095ea7b3","balanceOf(address)":"70a08231","decimals()":"313ce567","name()":"06fdde03","reserve0()":"443cb4bc","reserve1()":"5a76f25e","swap(uint256,uint256,address)":"6d9a640a","symbol()":"95d89b41","token0()":"0dfe1681","token1()":"d21220a7","totalSupply()":"18160ddd","transfer(address,uint256)":"a9059cbb","transferFrom(address,address,uint256)":"23b872dd"},"id":16}