{"abi":[{"type":"constructor","inputs":[{"name":"_token0","type":"address","internalType":"address"},{"name":"_token1","type":"address","internalType":"address"}],"stateMutability":"nonpayable"},{"type":"function","name":"addLiquidity","inputs":[{"name":"amount0","type":"uint256","internalType":"uint256"},{"name":"amount1","type":"uint256","internalType":"uint256"}],"outputs":[{"name":"liquidity","type":"uint256","internalType":"uint256"}],"stateMutability":"nonpayable"},{"type":"function","name":"allowance","inputs":[{"name":"owner","type":"address","internalType":"address"},{"name":"spender","type":"address","internalType":"address"}],"outputs":[{"name":"","type":"uint256","internalType":"uint256"}],"stateMutability":"view"},{"type":"function","name":"approve","inputs":[{"name":"spender","type":"address","internalType":"address"},{"name":"value","type":"uint256","internalType":"uint256"}],"outputs":[{"name":"","type":"bool","internalType":"bool"}],"stateMutability":"nonpayable"},{"type":"function","name":"balanceOf","inputs":[{"name":"account","type":"address","internalType":"address"}],"outputs":[{"name":"","type":"uint256","internalType":"uint256"}],"stateMutability":"view"},{"type":"function","name":"decimals","inputs":[],"outputs":[{"name":"","type":"uint8","internalType":"uint8"}],"stateMutability":"view"},{"type":"function","name":"name","inputs":[],"outputs":[{"name":"","type":"string","internalType":"string"}],"stateMutability":"view"},{"type":"function","name":"reserve0","inputs":[],"outputs":[{"name":"","type":"uint112","internalType":"uint112"}],"stateMutability":"view"},{"type":"function","name":"reserve1","inputs":[],"outputs":[{"name":"","type":"uint112","internalType":"uint112"}],"stateMutability":"view"},{"type":"function","name":"swap","inputs":[{"name":"amount0Out","type":"uint256","internalType":"uint256"},{"name":"amount1Out","type":"uint256","internalType":"uint256"},{"name":"to","type":"address","internalType":"address"}],"outputs":[],"stateMutability":"nonpayable"},{"type":"function","name":"symbol","inputs":[],"outputs":[{"name":"","type":"string","internalType":"string"}],"stateMutability":"view"},{"type":"function","name":"token0","inputs":[],"outputs":[{"name":"","type":"address","internalType":"address"}],"stateMutability":"view"},{"type":"function","name":"token1","inputs":[],"outputs":[{"name":"","type":"address","internalType":"address"}],"stateMutability":"view"},{"type":"function","name":"totalSupply","inputs":[],"outputs":[{"name":"","type":"uint256","internalType":"uint256"}],"stateMutability":"view"},{"type":"function","name":"transfer","inputs":[{"name":"to","type":"address","internalType":"address"},{"name":"value","type":"uint256","internalType":"uint256"}],"outputs":[{"name":"","type":"bool","internalType":"bool"}],"stateMutability":"nonpayable"},{"type":"function","name":"transferFrom","inputs":[{"name":"from","type":"address","internalType":"address"},{"name":"to","type":"address","internalType":"address"},{"name":"value","type":"uint256","internalType":"uint256"}],"outputs":[{"name":"","type":"bool","internalType":"bool"}],"stateMutability":"nonpayable"},{"type":"event","name":"Approval","inputs":[{"name":"owner","type":"address","indexed":true,"internalType":"address"},{"name":"spender","type":"address","indexed":true,"internalType":"address"},{"name":"value","type":"uint256","indexed":false,"internalType":"uint256"}],"anonymous":false},{"type":"event","name":"Transfer","inputs":[{"name":"from","type":"address","indexed":true,"internalType":"address"},{"name":"to","type":"address","indexed":true,"internalType":"address"},{"name":"value","type":"uint256","indexed":false,"internalType":"uint256"}],"anonymous":false},{"type":"error","name":"ERC20InsufficientAllowance","inputs":[{"name":"spender","type":"address","internalType":"address"},{"name":"allowance","type":"uint256","internalType":"uint256"},{"name":"needed","type":"uint256","internalType":"uint256"}]},{"type":"error","name":"ERC20InsufficientBalance","inputs":[{"name":"sender","type":"address","internalType":"address"},{"name":"balance","type":"uint256","internalType":"uint256"},{"name":"needed","type":"uint256","internalType":"uint256"}]},{"type":"error","name":"ERC20InvalidApprover","inputs":[{"name":"approver","type":"address","internalType":"address"}]},{"type":"error","name":"ERC20InvalidReceiver","inputs":[{"name":"receiver","type":"address","internalType":"address"}]},{"type":"error","name":"ERC20InvalidSender","inputs":[{"name":"sender","type":"address","internalType":"address"}]},{"type":"error","name":"ERC20InvalidSpender","inputs":[{"name":"spender","type":"address","internalType":"address"}]}],"bytecode":{"object":"0x60806040523480156200001157600080fd5b50604051620012ec380380620012ec8339810160408190526200003491620000e7565b604051806040016040528060088152602001672628102a37b5b2b760c11b8152506040518060400160405280600381526020016213141560ea1b8152508160039081620000829190620001c4565b506004620000918282620001c4565b5050600580546001600160a01b039485166001600160a01b03199182161790915560068054939094169216919091179091555062000290565b80516001600160a01b0381168114620000e257600080fd5b919050565b60008060408385031215620000fb57600080fd5b6200010683620000ca565b91506200011660208401620000ca565b90509250929050565b634e487b7160e01b600052604160045260246000fd5b600181811c908216806200014a57607f821691505b6020821081036200016b57634e487b7160e01b600052602260045260246000fd5b50919050565b601f821115620001bf57600081815260208120601f850160051c810160208610156200019a5750805b601f850160051c820191505b81811015620001bb57828155600101620001a6565b5050505b505050565b81516001600160401b03811115620001e057620001e06200011f565b620001f881620001f1845462000135565b8462000171565b602080601f831160018114620002305760008415620002175750858301515b600019600386901b1c1916600185901b178555620001bb565b600085815260208120601f198616915b82811015620002615788860151825594840194600190910190840162000240565b5085821015620002805787850151600019600388901b60f8161c191681555b5050505050600190811b01905550565b61104c80620002a06000396000f3fe608060405234801561001057600080fd5b50600436106100f55760003560e01c80635a76f25e116100975780639cd441da116100665780639cd441da14610225578063a9059cbb14610238578063d21220a71461024b578063dd62ed3e1461025e57600080fd5b80635a76f25e146101c55780636d9a640a146101df57806370a08231146101f457806395d89b411461021d57600080fd5b806318160ddd116100d357806318160ddd1461016657806323b872dd14610178578063313ce5671461018b578063443cb4bc1461019a57600080fd5b806306fdde03146100fa578063095ea7b3146101185780630dfe16811461013b575b600080fd5b610102610297565b60405161010f9190610dd5565b60405180910390f35b61012b610126366004610e3a565b610329565b604051901515815260200161010f565b60055461014e906001600160a01b031681565b6040516001600160a01b03909116815260200161010f565b6002545b60405190815260200161010f565b61012b610186366004610e64565b610343565b6040516012815260200161010f565b6007546101ad906001600160701b031681565b6040516001600160701b03909116815260200161010f565b6007546101ad90600160701b90046001600160701b031681565b6101f26101ed366004610ea0565b610367565b005b61016a610202366004610ed5565b6001600160a01b031660009081526020819052604090205490565b6101026106dc565b61016a610233366004610ef0565b6106eb565b61012b610246366004610e3a565b61099a565b60065461014e906001600160a01b031681565b61016a61026c366004610f12565b6001600160a01b03918216600090815260016020908152604080832093909416825291909152205490565b6060600380546102a690610f45565b80601f01602080910402602001604051908101604052809291908181526020018280546102d290610f45565b801561031f5780601f106102f45761010080835404028352916020019161031f565b820191906000526020600020905b81548152906001019060200180831161030257829003601f168201915b5050505050905090565b6000336103378185856109a8565b60019150505b92915050565b6000336103518582856109ba565b61035c858585610a51565b506001949350505050565b60008311806103765750600082115b6103c75760405162461bcd60e51b815260206004820152601360248201527f496e73756666696369656e74206f75747075740000000000000000000000000060448201526064015b60405180910390fd5b6007546001600160701b0316831080156103f25750600754600160701b90046001600160701b031682105b61043e5760405162461bcd60e51b815260206004820152601660248201527f496e73756666696369656e74206c69717569646974790000000000000000000060448201526064016103be565b82156104bd5760055460405163a9059cbb60e01b81526001600160a01b038381166004830152602482018690529091169063a9059cbb906044016020604051808303816000875af1158015610497573d6000803e3d6000fd5b505050506040513d601f19601f820116820180604052508101906104bb9190610f79565b505b811561053c5760065460405163a9059cbb60e01b81526001600160a01b038381166004830152602482018590529091169063a9059cbb906044016020604051808303816000875af1158015610516573d6000803e3d6000fd5b505050506040513d601f19601f8201168201806040525081019061053a9190610f79565b505b6005546040516370a0823160e01b81523060048201526000916001600160a01b0316906370a0823190602401602060405180830381865afa158015610585573d6000803e3d6000fd5b505050506040513d601f19601f820116820180604052508101906105a99190610f9b565b6006546040516370a0823160e01b81523060048201529192506000916001600160a01b03909116906370a0823190602401602060405180830381865afa1580156105f7573d6000803e3d6000fd5b505050506040513d601f19601f8201168201806040525081019061061b9190610f9b565b60075490915061063d906001600160701b03600160701b820481169116610fca565b6106478284610fca565b10156106955760405162461bcd60e51b815260206004820152600a60248201527f4b2076696f6c617465640000000000000000000000000000000000000000000060448201526064016103be565b600780546001600160701b03838116600160701b027fffffffff00000000000000000000000000000000000000000000000000000000909216908516171790555050505050565b6060600480546102a690610f45565b6005546040516323b872dd60e01b8152336004820152306024820152604481018490526000916001600160a01b0316906323b872dd906064016020604051808303816000875af1158015610743573d6000803e3d6000fd5b505050506040513d601f19601f820116820180604052508101906107679190610f79565b506006546040516323b872dd60e01b8152336004820152306024820152604481018490526001600160a01b03909116906323b872dd906064016020604051808303816000875af11580156107bf573d6000803e3d6000fd5b505050506040513d601f19601f820116820180604052508101906107e39190610f79565b50600254600003610807576108006107fb8385610fca565b610ac9565b905061086d565b60075461086a906001600160701b031661082060025490565b61082a9086610fca565b6108349190610fe1565b6007546001600160701b03600160701b9091041661085160025490565b61085b9086610fca565b6108659190610fe1565b610b39565b90505b6108773382610b51565b6005546040516370a0823160e01b815230600482015261033d916001600160a01b0316906370a0823190602401602060405180830381865afa1580156108c1573d6000803e3d6000fd5b505050506040513d601f19601f820116820180604052508101906108e59190610f9b565b6006546040516370a0823160e01b81523060048201526001600160a01b03909116906370a0823190602401602060405180830381865afa15801561092d573d6000803e3d6000fd5b505050506040513d601f19601f820116820180604052508101906109519190610f9b565b600780546001600160701b03928316600160701b027fffffffff000000000000000000000000000000000000000000000000000000009091169290931691909117919091179055565b600033610337818585610a51565b6109b58383836001610b8b565b505050565b6001600160a01b038381166000908152600160209081526040808320938616835292905220546000198114610a4b5781811015610a3c576040517ffb8f41b20000000000000000000000000000000000000000000000000000000081526001600160a01b038416600482015260248101829052604481018390526064016103be565b610a4b84848484036000610b8b565b50505050565b6001600160a01b038316610a94576040517f96c6fd1e000000000000000000000000000000000000000000000000000000008152600060048201526024016103be565b6001600160a01b038216610abe5760405163ec442f0560e01b8152600060048201526024016103be565b6109b5838383610c92565b60006003821115610b2a5750806000610ae3600283610fe1565b610aee906001611003565b90505b81811015610b2457905080600281610b098186610fe1565b610b139190611003565b610b1d9190610fe1565b9050610af1565b50919050565b8115610b34575060015b919050565b6000818310610b485781610b4a565b825b9392505050565b6001600160a01b038216610b7b5760405163ec442f0560e01b8152600060048201526024016103be565b610b8760008383610c92565b5050565b6001600160a01b038416610bce576040517fe602df05000000000000000000000000000000000000000000000000000000008152600060048201526024016103be565b6001600160a01b038316610c11576040517f94280d62000000000000000000000000000000000000000000000000000000008152600060048201526024016103be565b6001600160a01b0380851660009081526001602090815260408083209387168352929052208290558015610a4b57826001600160a01b0316846001600160a01b03167f8c5be1e5ebec7d5bd14f71427d1e84f3dd0314c0f7b2291e5b200ac8c7c3b92584604051610c8491815260200190565b60405180910390a350505050565b6001600160a01b038316610cbd578060026000828254610cb29190611003565b90915550610d489050565b6001600160a01b03831660009081526020819052604090205481811015610d29576040517fe450d38c0000000000000000000000000000000000000000000000000000000081526001600160a01b038516600482015260248101829052604481018390526064016103be565b6001600160a01b03841660009081526020819052604090209082900390555b6001600160a01b038216610d6457600280548290039055610d83565b6001600160a01b03821660009081526020819052604090208054820190555b816001600160a01b0316836001600160a01b03167fddf252ad1be2c89b69c2b068fc378daa952ba7f163c4a11628f55a4df523b3ef83604051610dc891815260200190565b60405180910390a3505050565b600060208083528351808285015260005b81811015610e0257858101830151858201604001528201610de6565b506000604082860101526040601f19601f8301168501019250505092915050565b80356001600160a01b0381168114610b3457600080fd5b60008060408385031215610e4d57600080fd5b610e5683610e23565b946020939093013593505050565b600080600060608486031215610e7957600080fd5b610e8284610e23565b9250610e9060208501610e23565b9150604084013590509250925092565b600080600060608486031215610eb557600080fd5b8335925060208401359150610ecc60408501610e23565b90509250925092565b600060208284031215610ee757600080fd5b610b4a82610e23565b60008060408385031215610f0357600080fd5b50508035926020909101359150565b60008060408385031215610f2557600080fd5b610f2e83610e23565b9150610f3c60208401610e23565b90509250929050565b600181811c90821680610f5957607f821691505b602082108103610b2457634e487b7160e01b600052602260045260246000fd5b600060208284031215610f8b57600080fd5b81518015158114610b4a57600080fd5b600060208284031215610fad57600080fd5b5051919050565b634e487b7160e01b600052601160045260246000fd5b808202811582820484141761033d5761033d610fb4565b600082610ffe57634e487b7160e01b600052601260045260246000fd5b500490565b8082018082111561033d5761033d610fb456fea2646970667358221220c28197b283eb416a7c37803e23bda109788b4f69da25686cd2a5d451896c13f864736f6c63430008140033","linkReferences":{}},"methodIdentifiers":{"addLiquidity(uint256,uint256)":"9cd441da","allowance(address,address)":"dd62ed3e","approve(address,uint256)":"095ea7b3","balanceOf(address)":"70a08231","decimals()":"313ce567","name()":"06fdde03","reserve0()":"443cb4bc","reserve1()":"5a76f25e","swap(uint256,uint256,address)":"6d9a640a","symbol()":"95d89b41","token0()":"0dfe1681","token1()":"d21220a7","totalSupply()":"18160ddd","transfer(address,uint256)":"a9059cbb","transferFrom(address,address,uint256)":"23b872dd"},"id":13}