{"abi":[{"type":"constructor","inputs":[{"name":"_owner","type":"address","internalType":"address"}],"stateMutability":"nonpayable"},{"type":"function","name":"BRIDGE_ROLE","inputs":[],"outputs":[{"name":"","type":"bytes32","internalType":"bytes32"}],"stateMutability":"view"},{"type":"function","name":"DEFAULT_ADMIN_ROLE","inputs":[],"outputs":[{"name":"","type":"bytes32","internalType":"bytes32"}],"stateMutability":"view"},{"type":"function","name":"OWNER_ROLE","inputs":[],"outputs":[{"name":"","type":"bytes32","internalType":"bytes32"}],"stateMutability":"view"},{"type":"function","name":"allowance","inputs":[{"name":"owner","type":"address","internalType":"address"},{"name":"spender","type":"address","internalType":"address"}],"outputs":[{"name":"","type":"uint256","internalType":"uint256"}],"stateMutability":"view"},{"type":"function","name":"approve","inputs":[{"name":"spender","type":"address","internalType":"address"},{"name":"value","type":"uint256","internalType":"uint256"}],"outputs":[{"name":"","type":"bool","internalType":"bool"}],"stateMutability":"nonpayable"},{"type":"function","name":"balanceOf","inputs":[{"name":"account","type":"address","internalType":"address"}],"outputs":[{"name":"","type":"uint256","internalType":"uint256"}],"stateMutability":"view"},{"type":"function","name":"burn","inputs":[{"name":"account","type":"address","internalType":"address"},{"name":"amount","type":"uint256","internalType":"uint256"}],"outputs":[{"name":"success","type":"bool","internalType":"bool"}],"stateMutability":"nonpayable"},{"type":"function","name":"decimals","inputs":[],"outputs":[{"name":"","type":"uint8","internalType":"uint8"}],"stateMutability":"view"},{"type":"function","name":"getRoleAdmin","inputs":[{"name":"role","type":"bytes32","internalType":"bytes32"}],"outputs":[{"name":"","type":"bytes32","internalType":"bytes32"}],"stateMutability":"view"},{"type":"function","name":"grantBridgeRole","inputs":[{"name":"account","type":"address","internalType":"address"}],"outputs":[{"name":"success","type":"bool","internalType":"bool"}],"stateMutability":"nonpayable"},{"type":"function","name":"grantRole","inputs":[{"name":"role","type":"bytes32","internalType":"bytes32"},{"name":"account","type":"address","internalType":"address"}],"outputs":[],"stateMutability":"nonpayable"},{"type":"function","name":"hasBridgeRole","inputs":[{"name":"account","type":"address","internalType":"address"}],"outputs":[{"name":"success","type":"bool","internalType":"bool"}],"stateMutability":"view"},{"type":"function","name":"hasRole","inputs":[{"name":"role","type":"bytes32","internalType":"bytes32"},{"name":"account","type":"address","internalType":"address"}],"outputs":[{"name":"","type":"bool","internalType":"bool"}],"stateMutability":"view"},{"type":"function","name":"mint","inputs":[{"name":"account","type":"address","internalType":"address"},{"name":"amount","type":"uint256","internalType":"uint256"}],"outputs":[{"name":"success","type":"bool","internalType":"bool"}],"stateMutability":"nonpayable"},{"type":"function","name":"name","inputs":[],"outputs":[{"name":"","type":"string","internalType":"string"}],"stateMutability":"view"},{"type":"function","name":"renounceRole","inputs":[{"name":"role","type":"bytes32","internalType":"bytes32"},{"name":"callerConfirmation","type":"address","internalType":"address"}],"outputs":[],"stateMutability":"nonpayable"},{"type":"function","name":"revokeRole","inputs":[{"name":"role","type":"bytes32","internalType":"bytes32"},{"name":"account","type":"address","internalType":"address"}],"outputs":[],"stateMutability":"nonpayable"},{"type":"function","name":"supportsInterface","inputs":[{"name":"interfaceId","type":"bytes4","internalType":"bytes4"}],"outputs":[{"name":"","type":"bool","internalType":"bool"}],"stateMutability":"view"},{"type":"function","name":"symbol","inputs":[],"outputs":[{"name":"","type":"string","internalType":"string"}],"stateMutability":"view"},{"type":"function","name":"totalSupply","inputs":[],"outputs":[{"name":"","type":"uint256","internalType":"uint256"}],"stateMutability":"view"},{"type":"function","name":"transfer","inputs":[{"name":"to","type":"address","internalType":"address"},{"name":"value","type":"uint256","internalType":"uint256"}],"outputs":[{"name":"","type":"bool","internalType":"bool"}],"stateMutability":"nonpayable"},{"type":"function","name":"transferFrom","inputs":[{"name":"from","type":"address","internalType":"address"},{"name":"to","type":"address","internalType":"address"},{"name":"value","type":"uint256","internalType":"uint256"}],"outputs":[{"name":"","type":"bool","internalType":"bool"}],"stateMutability":"nonpayable"},{"type":"event","name":"Approval","inputs":[{"name":"owner","type":"address","indexed":true,"internalType":"address"},{"name":"spender","type":"address","indexed":true,"internalType":"address"},{"name":"value","type":"uint256","indexed":false,"internalType":"uint256"}],"anonymous":false},{"type":"event","name":"RoleAdminChanged","inputs":[{"name":"role","type":"bytes32","indexed":true,"internalType":"bytes32"},{"name":"previousAdminRole","type":"bytes32","indexed":true,"internalType":"bytes32"},{"name":"newAdminRole","type":"bytes32","indexed":true,"internalType":"bytes32"}],"anonymous":false},{"type":"event","name":"RoleGranted","inputs":[{"name":"role","type":"bytes32","indexed":true,"internalType":"bytes32"},{"name":"account","type":"address","indexed":true,"internalType":"address"},{"name":"sender","type":"address","indexed":true,"internalType":"address"}],"anonymous":false},{"type":"event","name":"RoleRevoked","inputs":[{"name":"role","type":"bytes32","indexed":true,"internalType":"bytes32"},{"name":"account","type":"address","indexed":true,"internalType":"address"},{"name":"sender","type":"address","indexed":true,"internalType":"address"}],"anonymous":false},{"type":"event","name":"Transfer","inputs":[{"name":"from","type":"address","indexed":true,"internalType":"address"},{"name":"to","type":"address","indexed":true,"internalType":"address"},{"name":"value","type":"uint256","indexed":false,"internalType":"uint256"}],"anonymous":false},{"type":"error","name":"AccessControlBadConfirmation","inputs":[]},{"type":"error","name":"AccessControlUnauthorizedAccount","inputs":[{"name":"account","type":"address","internalType":"address"},{"name":"neededRole","type":"bytes32","internalType":"bytes32"}]},{"type":"error","name":"ERC20InsufficientAllowance","inputs":[{"name":"spender","type":"address","internalType":"address"},{"name":"allowance","type":"uint256","internalType":"uint256"},{"name":"needed","type":"uint256","internalType":"uint256"}]},{"type":"error","name":"ERC20InsufficientBalance","inputs":[{"name":"sender","type":"address","internalType":"address"},{"name":"balance","type":"uint256","internalType":"uint256"},{"name":"needed","type":"uint256","internalType":"uint256"}]},{"type":"error","name":"ERC20InvalidApprover","inputs":[{"name":"approver","type":"address","internalType":"address"}]},{"type":"error","name":"ERC20InvalidReceiver","inputs":[{"name":"receiver","type":"address","internalType":"address"}]},{"type":"error","name":"ERC20InvalidSender","inputs":[{"name":"sender","type":"address","internalType":"address"}]},{"type":"error","name":"ERC20InvalidSpender","inputs":[{"name":"spender","type":"address","internalType":"address"}]},{"type":"error","name":"noPermission","inputs":[{"name":"adr","type":"address","internalType":"address"}]}],"bytecode":{"object":"0x608060405234801561000f575f5ffd5b50604051611f35380380611f35833981810160405281019061003191906102e4565b6040518060400160405280600981526020017f53415450546f6b656e00000000000000000000000000000000000000000000008152506040518060400160405280600481526020017f534154500000000000000000000000000000000000000000000000000000000081525081600490816100ac919061055d565b5080600590816100bc919061055d565b5050506100ef7fb19546dff01e856fb3f010c267a7b1c60363cf8a4664e21cc89c26224620214e8261012760201b60201c565b506101207f52ba824bfabc2bcfcdf7f0edbb486ebb05e1836c90e78047efeb949990f72e5f8261012760201b60201c565b505061062c565b5f610138838361021c60201b60201c565b6102125760015f5f8581526020019081526020015f205f015f8473ffffffffffffffffffffffffffffffffffffffff1673ffffffffffffffffffffffffffffffffffffffff1681526020019081526020015f205f6101000a81548160ff0219169083151502179055506101af61027f60201b60201c565b73ffffffffffffffffffffffffffffffffffffffff168273ffffffffffffffffffffffffffffffffffffffff16847f2f8788117e7eff1d82e926ec794901d17c78024a50270940304540a733656f0d60405160405180910390a460019050610216565b5f90505b92915050565b5f5f5f8481526020019081526020015f205f015f8373ffffffffffffffffffffffffffffffffffffffff1673ffffffffffffffffffffffffffffffffffffffff1681526020019081526020015f205f9054906101000a900460ff16905092915050565b5f33905090565b5f5ffd5b5f73ffffffffffffffffffffffffffffffffffffffff82169050919050565b5f6102b38261028a565b9050919050565b6102c3816102a9565b81146102cd575f5ffd5b50565b5f815190506102de816102ba565b92915050565b5f602082840312156102f9576102f8610286565b5b5f610306848285016102d0565b91505092915050565b5f81519050919050565b7f4e487b71000000000000000000000000000000000000000000000000000000005f52604160045260245ffd5b7f4e487b71000000000000000000000000000000000000000000000000000000005f52602260045260245ffd5b5f600282049050600182168061038a57607f821691505b60208210810361039d5761039c610346565b5b50919050565b5f819050815f5260205f209050919050565b5f6020601f8301049050919050565b5f82821b905092915050565b5f600883026103ff7fffffffffffffffffffffffffffffffffffffffffffffffffffffffffffffffff826103c4565b61040986836103c4565b95508019841693508086168417925050509392505050565b5f819050919050565b5f819050919050565b5f61044d61044861044384610421565b61042a565b610421565b9050919050565b5f819050919050565b61046683610433565b61047a61047282610454565b8484546103d0565b825550505050565b5f5f905090565b610491610482565b61049c81848461045d565b505050565b5f5b828110156104c2576104b75f828401610489565b6001810190506104a3565b505050565b601f8211156105155782821115610514576104e1816103a3565b6104ea836103b5565b6104f3856103b5565b6020861015610500575f90505b80830161050f828403826104a1565b505050505b5b505050565b5f82821c905092915050565b5f6105355f198460080261051a565b1980831691505092915050565b5f61054d8383610526565b9150826002028217905092915050565b6105668261030f565b67ffffffffffffffff81111561057f5761057e610319565b5b6105898254610373565b6105948282856104c7565b5f60209050601f8311600181146105c5575f84156105b3578287015190505b6105bd8582610542565b865550610624565b601f1984166105d3866103a3565b5f5b828110156105fa578489015182556001820191506020850194506020810190506105d5565b868310156106175784890151610613601f891682610526565b8355505b6001600288020188555050505b505050505050565b6118fc806106395f395ff3fe608060405234801561000f575f5ffd5b5060043610610140575f3560e01c806391d14854116100b6578063a9059cbb1161007a578063a9059cbb146103c2578063b5bfddea146103f2578063d547741f14610410578063dd62ed3e1461042c578063e58378bb1461045c578063ea1340711461047a57610140565b806391d14854146102f657806395d89b41146103265780639dc29fac14610344578063a217fddf14610374578063a5e99b8e1461039257610140565b8063248a9ca311610108578063248a9ca3146102105780632f2ff15d14610240578063313ce5671461025c57806336568abe1461027a57806340c10f191461029657806370a08231146102c657610140565b806301ffc9a71461014457806306fdde0314610174578063095ea7b31461019257806318160ddd146101c257806323b872dd146101e0575b5f5ffd5b61015e600480360381019061015991906113f3565b6104aa565b60405161016b9190611438565b60405180910390f35b61017c610523565b60405161018991906114c1565b60405180910390f35b6101ac60048036038101906101a7919061156e565b6105b3565b6040516101b99190611438565b60405180910390f35b6101ca6105d5565b6040516101d791906115bb565b60405180910390f35b6101fa60048036038101906101f591906115d4565b6105de565b6040516102079190611438565b60405180910390f35b61022a60048036038101906102259190611657565b61060c565b6040516102379190611691565b60405180910390f35b61025a600480360381019061025591906116aa565b610628565b005b61026461064a565b6040516102719190611703565b60405180910390f35b610294600480360381019061028f91906116aa565b610652565b005b6102b060048036038101906102ab919061156e565b6106cd565b6040516102bd9190611438565b60405180910390f35b6102e060048036038101906102db919061171c565b61070d565b6040516102ed91906115bb565b60405180910390f35b610310600480360381019061030b91906116aa565b610753565b60405161031d9190611438565b60405180910390f35b61032e6107b6565b60405161033b91906114c1565b60405180910390f35b61035e6004803603810190610359919061156e565b610846565b60405161036b9190611438565b60405180910390f35b61037c610886565b6040516103899190611691565b60405180910390f35b6103ac60048036038101906103a7919061171c565b61088c565b6040516103b99190611438565b60405180910390f35b6103dc60048036038101906103d7919061156e565b6108ec565b6040516103e99190611438565b60405180910390f35b6103fa61090e565b6040516104079190611691565b60405180910390f35b61042a600480360381019061042591906116aa565b610932565b005b61044660048036038101906104419190611747565b610954565b60405161045391906115bb565b60405180910390f35b6104646109d6565b6040516104719190611691565b60405180910390f35b610494600480360381019061048f919061171c565b6109fa565b6040516104a19190611438565b60405180910390f35b5f7f7965db0b000000000000000000000000000000000000000000000000000000007bffffffffffffffffffffffffffffffffffffffffffffffffffffffff1916827bffffffffffffffffffffffffffffffffffffffffffffffffffffffff1916148061051c575061051b82610a75565b5b9050919050565b606060048054610532906117b2565b80601f016020809104026020016040519081016040528092919081815260200182805461055e906117b2565b80156105a95780601f10610580576101008083540402835291602001916105a9565b820191905f5260205f20905b81548152906001019060200180831161058c57829003601f168201915b5050505050905090565b5f5f6105bd610ade565b90506105ca818585610ae5565b600191505092915050565b5f600354905090565b5f5f6105e8610ade565b90506105f5858285610af7565b610600858585610b8a565b60019150509392505050565b5f5f5f8381526020019081526020015f20600101549050919050565b6106318261060c565b61063a81610c7a565b6106448383610c8e565b50505050565b5f6012905090565b61065a610ade565b73ffffffffffffffffffffffffffffffffffffffff168173ffffffffffffffffffffffffffffffffffffffff16146106be576040517f6697b23200000000000000000000000000000000000000000000000000000000815260040160405180910390fd5b6106c88282610d77565b505050565b5f7f52ba824bfabc2bcfcdf7f0edbb486ebb05e1836c90e78047efeb949990f72e5f6106f881610c7a565b6107028484610e60565b600191505092915050565b5f60015f8373ffffffffffffffffffffffffffffffffffffffff1673ffffffffffffffffffffffffffffffffffffffff1681526020019081526020015f20549050919050565b5f5f5f8481526020019081526020015f205f015f8373ffffffffffffffffffffffffffffffffffffffff1673ffffffffffffffffffffffffffffffffffffffff1681526020019081526020015f205f9054906101000a900460ff16905092915050565b6060600580546107c5906117b2565b80601f01602080910402602001604051908101604052809291908181526020018280546107f1906117b2565b801561083c5780601f106108135761010080835404028352916020019161083c565b820191905f5260205f20905b81548152906001019060200180831161081f57829003601f168201915b5050505050905090565b5f7f52ba824bfabc2bcfcdf7f0edbb486ebb05e1836c90e78047efeb949990f72e5f61087181610c7a565b61087b8484610edf565b600191505092915050565b5f5f1b81565b5f7fb19546dff01e856fb3f010c267a7b1c60363cf8a4664e21cc89c26224620214e6108b781610c7a565b6108e17f52ba824bfabc2bcfcdf7f0edbb486ebb05e1836c90e78047efeb949990f72e5f84610c8e565b506001915050919050565b5f5f6108f6610ade565b9050610903818585610b8a565b600191505092915050565b7f52ba824bfabc2bcfcdf7f0edbb486ebb05e1836c90e78047efeb949990f72e5f81565b61093b8261060c565b61094481610c7a565b61094e8383610d77565b50505050565b5f60025f8473ffffffffffffffffffffffffffffffffffffffff1673ffffffffffffffffffffffffffffffffffffffff1681526020019081526020015f205f8373ffffffffffffffffffffffffffffffffffffffff1673ffffffffffffffffffffffffffffffffffffffff1681526020019081526020015f2054905092915050565b7fb19546dff01e856fb3f010c267a7b1c60363cf8a4664e21cc89c26224620214e81565b5f610a257f52ba824bfabc2bcfcdf7f0edbb486ebb05e1836c90e78047efeb949990f72e5f83610753565b15610a335760019050610a70565b816040517f1aee145f000000000000000000000000000000000000000000000000000000008152600401610a6791906117f1565b60405180910390fd5b919050565b5f7f01ffc9a7000000000000000000000000000000000000000000000000000000007bffffffffffffffffffffffffffffffffffffffffffffffffffffffff1916827bffffffffffffffffffffffffffffffffffffffffffffffffffffffff1916149050919050565b5f33905090565b610af28383836001610f5e565b505050565b5f610b028484610954565b90507fffffffffffffffffffffffffffffffffffffffffffffffffffffffffffffffff811015610b845781811015610b75578281836040517ffb8f41b2000000000000000000000000000000000000000000000000000000008152600401610b6c9392919061180a565b60405180910390fd5b610b8384848484035f610f5e565b5b50505050565b5f73ffffffffffffffffffffffffffffffffffffffff168373ffffffffffffffffffffffffffffffffffffffff1603610bfa575f6040517f96c6fd1e000000000000000000000000000000000000000000000000000000008152600401610bf191906117f1565b60405180910390fd5b5f73ffffffffffffffffffffffffffffffffffffffff168273ffffffffffffffffffffffffffffffffffffffff1603610c6a575f6040517fec442f05000000000000000000000000000000000000000000000000000000008152600401610c6191906117f1565b60405180910390fd5b610c7583838361112d565b505050565b610c8b81610c86610ade565b611349565b50565b5f610c998383610753565b610d6d5760015f5f8581526020019081526020015f205f015f8473ffffffffffffffffffffffffffffffffffffffff1673ffffffffffffffffffffffffffffffffffffffff1681526020019081526020015f205f6101000a81548160ff021916908315150217905550610d0a610ade565b73ffffffffffffffffffffffffffffffffffffffff168273ffffffffffffffffffffffffffffffffffffffff16847f2f8788117e7eff1d82e926ec794901d17c78024a50270940304540a733656f0d60405160405180910390a460019050610d71565b5f90505b92915050565b5f610d828383610753565b15610e56575f5f5f8581526020019081526020015f205f015f8473ffffffffffffffffffffffffffffffffffffffff1673ffffffffffffffffffffffffffffffffffffffff1681526020019081526020015f205f6101000a81548160ff021916908315150217905550610df3610ade565b73ffffffffffffffffffffffffffffffffffffffff168273ffffffffffffffffffffffffffffffffffffffff16847ff6391f5c32d9c69d2a47ea670b442974b53935d1edc7fd64eb21e047a839171b60405160405180910390a460019050610e5a565b5f90505b92915050565b5f73ffffffffffffffffffffffffffffffffffffffff168273ffffffffffffffffffffffffffffffffffffffff1603610ed0575f6040517fec442f05000000000000000000000000000000000000000000000000000000008152600401610ec791906117f1565b60405180910390fd5b610edb5f838361112d565b5050565b5f73ffffffffffffffffffffffffffffffffffffffff168273ffffffffffffffffffffffffffffffffffffffff1603610f4f575f6040517f96c6fd1e000000000000000000000000000000000000000000000000000000008152600401610f4691906117f1565b60405180910390fd5b610f5a825f8361112d565b5050565b5f73ffffffffffffffffffffffffffffffffffffffff168473ffffffffffffffffffffffffffffffffffffffff1603610fce575f6040517fe602df05000000000000000000000000000000000000000000000000000000008152600401610fc591906117f1565b60405180910390fd5b5f73ffffffffffffffffffffffffffffffffffffffff168373ffffffffffffffffffffffffffffffffffffffff160361103e575f6040517f94280d6200000000000000000000000000000000000000000000000000000000815260040161103591906117f1565b60405180910390fd5b8160025f8673ffffffffffffffffffffffffffffffffffffffff1673ffffffffffffffffffffffffffffffffffffffff1681526020019081526020015f205f8573ffffffffffffffffffffffffffffffffffffffff1673ffffffffffffffffffffffffffffffffffffffff1681526020019081526020015f20819055508015611127578273ffffffffffffffffffffffffffffffffffffffff168473ffffffffffffffffffffffffffffffffffffffff167f8c5be1e5ebec7d5bd14f71427d1e84f3dd0314c0f7b2291e5b200ac8c7c3b9258460405161111e91906115bb565b60405180910390a35b50505050565b5f73ffffffffffffffffffffffffffffffffffffffff168373ffffffffffffffffffffffffffffffffffffffff160361117d578060035f828254611171919061186c565b9250508190555061124d565b5f60015f8573ffffffffffffffffffffffffffffffffffffffff1673ffffffffffffffffffffffffffffffffffffffff1681526020019081526020015f2054905081811015611207578381836040517fe450d38c0000000000000000000000000000000000000000000000000000000081526004016111fe9392919061180a565b60405180910390fd5b81810360015f8673ffffffffffffffffffffffffffffffffffffffff1673ffffffffffffffffffffffffffffffffffffffff1681526020019081526020015f2081905550505b5f73ffffffffffffffffffffffffffffffffffffffff168273ffffffffffffffffffffffffffffffffffffffff1603611294578060035f82825403925050819055506112df565b8060015f8473ffffffffffffffffffffffffffffffffffffffff1673ffffffffffffffffffffffffffffffffffffffff1681526020019081526020015f205f82825401925050819055505b8173ffffffffffffffffffffffffffffffffffffffff168373ffffffffffffffffffffffffffffffffffffffff167fddf252ad1be2c89b69c2b068fc378daa952ba7f163c4a11628f55a4df523b3ef8360405161133c91906115bb565b60405180910390a3505050565b6113538282610753565b6113965780826040517fe2517d3f00000000000000000000000000000000000000000000000000000000815260040161138d92919061189f565b60405180910390fd5b5050565b5f5ffd5b5f7fffffffff0000000000000000000000000000000000000000000000000000000082169050919050565b6113d28161139e565b81146113dc575f5ffd5b50565b5f813590506113ed816113c9565b92915050565b5f602082840312156114085761140761139a565b5b5f611415848285016113df565b91505092915050565b5f8115159050919050565b6114328161141e565b82525050565b5f60208201905061144b5f830184611429565b92915050565b5f81519050919050565b5f82825260208201905092915050565b8281835e5f83830152505050565b5f601f19601f8301169050919050565b5f61149382611451565b61149d818561145b565b93506114ad81856020860161146b565b6114b681611479565b840191505092915050565b5f6020820190508181035f8301526114d98184611489565b905092915050565b5f73ffffffffffffffffffffffffffffffffffffffff82169050919050565b5f61150a826114e1565b9050919050565b61151a81611500565b8114611524575f5ffd5b50565b5f8135905061153581611511565b92915050565b5f819050919050565b61154d8161153b565b8114611557575f5ffd5b50565b5f8135905061156881611544565b92915050565b5f5f604083850312156115845761158361139a565b5b5f61159185828601611527565b92505060206115a28582860161155a565b9150509250929050565b6115b58161153b565b82525050565b5f6020820190506115ce5f8301846115ac565b92915050565b5f5f5f606084860312156115eb576115ea61139a565b5b5f6115f886828701611527565b935050602061160986828701611527565b925050604061161a8682870161155a565b9150509250925092565b5f819050919050565b61163681611624565b8114611640575f5ffd5b50565b5f813590506116518161162d565b92915050565b5f6020828403121561166c5761166b61139a565b5b5f61167984828501611643565b91505092915050565b61168b81611624565b82525050565b5f6020820190506116a45f830184611682565b92915050565b5f5f604083850312156116c0576116bf61139a565b5b5f6116cd85828601611643565b92505060206116de85828601611527565b9150509250929050565b5f60ff82169050919050565b6116fd816116e8565b82525050565b5f6020820190506117165f8301846116f4565b92915050565b5f602082840312156117315761173061139a565b5b5f61173e84828501611527565b91505092915050565b5f5f6040838503121561175d5761175c61139a565b5b5f61176a85828601611527565b925050602061177b85828601611527565b9150509250929050565b7f4e487b71000000000000000000000000000000000000000000000000000000005f52602260045260245ffd5b5f60028204905060018216806117c957607f821691505b6020821081036117dc576117db611785565b5b50919050565b6117eb81611500565b82525050565b5f6020820190506118045f8301846117e2565b92915050565b5f60608201905061181d5f8301866117e2565b61182a60208301856115ac565b61183760408301846115ac565b949350505050565b7f4e487b71000000000000000000000000000000000000000000000000000000005f52601160045260245ffd5b5f6118768261153b565b91506118818361153b565b92508282019050808211156118995761189861183f565b5b92915050565b5f6040820190506118b25f8301856117e2565b6118bf6020830184611682565b939250505056fea2646970667358221220d5298f56389b64a7473a0f24fd254560cd7297e1b2895f9ed7efea9a0b7c09df64736f6c63430008220033","linkReferences":{}},"methodIdentifiers":{"BRIDGE_ROLE()":"b5bfddea","DEFAULT_ADMIN_ROLE()":"a217fddf","OWNER_ROLE()":"e58378bb","allowance(address,address)":"dd62ed3e","approve(address,uint256)":"095ea7b3","balanceOf(address)":"70a08231","burn(address,uint256)":"9dc29fac","decimals()":"313ce567","getRoleAdmin(bytes32)":"248a9ca3","grantBridgeRole(address)":"a5e99b8e","grantRole(bytes32,address)":"2f2ff15d","hasBridgeRole(address)":"ea134071","hasRole(bytes32,address)":"91d14854","mint(address,uint256)":"40c10f19","name()":"06fdde03","renounceRole(bytes32,address)":"36568abe","revokeRole(bytes32,address)":"d547741f","supportsInterface(bytes4)":"01ffc9a7","symbol()":"95d89b41","totalSupply()":"18160ddd","transfer(address,uint256)":"a9059cbb","transferFrom(address,address,uint256)":"23b872dd"},"id":17}